{
  "_format": "hh-sol-artifact-1",
  "contractName": "BvsBContract",
  "sourceName": "contracts/BvsBContract.sol",
  "abi": [
    {
      "inputs": [
        {
          "internalType": "address",
          "name": "_priceFeed",
          "type": "address"
        }
      ],
      "stateMutability": "nonpayable",
      "type": "constructor"
    },
    {
      "anonymous": false,
      "inputs": [
        {
          "indexed": true,
          "internalType": "uint256",
          "name": "tradeId",
          "type": "uint256"
        },
        {
          "indexed": true,
          "internalType": "address",
          "name": "player",
          "type": "address"
        },
        {
          "indexed": false,
          "internalType": "address",
          "name": "token",
          "type": "address"
        },
        {
          "indexed": false,
          "internalType": "uint256",
          "name": "amount",
          "type": "uint256"
        },
        {
          "indexed": false,
          "internalType": "enum BvsBContract.Direction",
          "name": "direction",
          "type": "uint8"
        }
      ],
      "name": "TradePlaced",
      "type": "event"
    },
    {
      "anonymous": false,
      "inputs": [
        {
          "indexed": true,
          "internalType": "uint256",
          "name": "tradeId",
          "type": "uint256"
        },
        {
          "indexed": false,
          "internalType": "bool",
          "name": "won",
          "type": "bool"
        },
        {
          "indexed": false,
          "internalType": "uint256",
          "name": "payout",
          "type": "uint256"
        }
      ],
      "name": "TradeResolved",
      "type": "event"
    },
    {
      "inputs": [
        {
          "internalType": "address",
          "name": "_token",
          "type": "address"
        },
        {
          "internalType": "string",
          "name": "_symbol",
          "type": "string"
        }
      ],
      "name": "addSupportedToken",
      "outputs": [],
      "stateMutability": "nonpayable",
      "type": "function"
    },
    {
      "inputs": [],
      "name": "admin",
      "outputs": [
        {
          "internalType": "address",
          "name": "",
          "type": "address"
        }
      ],
      "stateMutability": "view",
      "type": "function"
    },
    {
      "inputs": [
        {
          "internalType": "address",
          "name": "token",
          "type": "address"
        },
        {
          "internalType": "uint256",
          "name": "amount",
          "type": "uint256"
        }
      ],
      "name": "emergencyWithdraw",
      "outputs": [],
      "stateMutability": "nonpayable",
      "type": "function"
    },
    {
      "inputs": [],
      "name": "getLatestPrice",
      "outputs": [
        {
          "internalType": "int256",
          "name": "",
          "type": "int256"
        }
      ],
      "stateMutability": "view",
      "type": "function"
    },
    {
      "inputs": [
        {
          "internalType": "address",
          "name": "token",
          "type": "address"
        },
        {
          "internalType": "uint256",
          "name": "amount",
          "type": "uint256"
        },
        {
          "internalType": "enum BvsBContract.Direction",
          "name": "direction",
          "type": "uint8"
        },
        {
          "internalType": "uint256",
          "name": "expiry",
          "type": "uint256"
        }
      ],
      "name": "placeTrade",
      "outputs": [],
      "stateMutability": "nonpayable",
      "type": "function"
    },
    {
      "inputs": [
        {
          "internalType": "address",
          "name": "_token",
          "type": "address"
        }
      ],
      "name": "removeSupportedToken",
      "outputs": [],
      "stateMutability": "nonpayable",
      "type": "function"
    },
    {
      "inputs": [
        {
          "internalType": "uint256",
          "name": "id",
          "type": "uint256"
        }
      ],
      "name": "resolveTrade",
      "outputs": [],
      "stateMutability": "nonpayable",
      "type": "function"
    },
    {
      "inputs": [
        {
          "internalType": "address",
          "name": "",
          "type": "address"
        }
      ],
      "name": "supportedTokens",
      "outputs": [
        {
          "internalType": "bool",
          "name": "",
          "type": "bool"
        }
      ],
      "stateMutability": "view",
      "type": "function"
    },
    {
      "inputs": [
        {
          "internalType": "address",
          "name": "",
          "type": "address"
        }
      ],
      "name": "tokenSymbols",
      "outputs": [
        {
          "internalType": "string",
          "name": "",
          "type": "string"
        }
      ],
      "stateMutability": "view",
      "type": "function"
    },
    {
      "inputs": [],
      "name": "tradeCount",
      "outputs": [
        {
          "internalType": "uint256",
          "name": "",
          "type": "uint256"
        }
      ],
      "stateMutability": "view",
      "type": "function"
    },
    {
      "inputs": [
        {
          "internalType": "uint256",
          "name": "",
          "type": "uint256"
        }
      ],
      "name": "trades",
      "outputs": [
        {
          "internalType": "address",
          "name": "player",
          "type": "address"
        },
        {
          "internalType": "address",
          "name": "token",
          "type": "address"
        },
        {
          "internalType": "uint256",
          "name": "amount",
          "type": "uint256"
        },
        {
          "internalType": "enum BvsBContract.Direction",
          "name": "direction",
          "type": "uint8"
        },
        {
          "internalType": "uint256",
          "name": "placedAt",
          "type": "uint256"
        },
        {
          "internalType": "uint256",
          "name": "expiry",
          "type": "uint256"
        },
        {
          "internalType": "uint256",
          "name": "entryPrice",
          "type": "uint256"
        },
        {
          "internalType": "bool",
          "name": "resolved",
          "type": "bool"
        },
        {
          "internalType": "bool",
          "name": "won",
          "type": "bool"
        }
      ],
      "stateMutability": "view",
      "type": "function"
    },
    {
      "inputs": [
        {
          "internalType": "address",
          "name": "newAdmin",
          "type": "address"
        }
      ],
      "name": "updateAdmin",
      "outputs": [],
      "stateMutability": "nonpayable",
      "type": "function"
    }
  ],
  "bytecode": "0x608060405234801561001057600080fd5b5060405161124438038061124483398101604081905261002f91610062565b60008054336001600160a01b031991821617909155600180549091166001600160a01b0392909216919091179055610092565b60006020828403121561007457600080fd5b81516001600160a01b038116811461008b57600080fd5b9392505050565b6111a3806100a16000396000f3fe608060405234801561001057600080fd5b50600436106100b45760003560e01c806395ccea671161007157806395ccea67146101c9578063bd55022a146101dc578063e2f273bd146101e5578063e3549c43146101f8578063f851a4401461020b578063fb0b2b361461023657600080fd5b8063086aa182146100b95780631e6c598e146100ce57806368c4ac261461015a578063720138e81461018d57806376319190146101a05780638e15f473146101b3575b600080fd5b6100cc6100c7366004610c5a565b610256565b005b61013c6100dc366004610c5a565b6004602081905260009182526040909120805460018201546002830154600384015494840154600585015460068601546007909601546001600160a01b03958616979490951695929460ff94851694929391928181169161010090041689565b60405161015199989796959493929190610cab565b60405180910390f35b61017d610168366004610d24565b60026020526000908152604090205460ff1681565b6040519015158152602001610151565b6100cc61019b366004610d5c565b610554565b6100cc6101ae366004610d24565b6105ba565b6101bb61061a565b604051908152602001610151565b6100cc6101d7366004610e1e565b61069f565b6101bb60055481565b6100cc6101f3366004610d24565b610790565b6100cc610206366004610e48565b6107dc565b60005461021e906001600160a01b031681565b6040516001600160a01b039091168152602001610151565b610249610244366004610d24565b610b72565b6040516101519190610e92565b6000546001600160a01b031633146102895760405162461bcd60e51b815260040161028090610ee0565b60405180910390fd5b60055481106102d15760405162461bcd60e51b8152602060048201526014602482015273151c98591948191bd95cc81b9bdd08195e1a5cdd60621b6044820152606401610280565b60008181526004602052604090206007015460ff161561032c5760405162461bcd60e51b8152602060048201526016602482015275151c98591948185b1c9958591e481c995cdbdb1d995960521b6044820152606401610280565b6000818152600460205260409020600501544210156103855760405162461bcd60e51b8152602060048201526015602482015274151c985919481b9bdd081e595d08195e1c1a5c9959605a1b6044820152606401610280565b60008181526004602052604081209061039c61061a565b9050600081136103e35760405162461bcd60e51b8152602060048201526012602482015271496e76616c6964207072696365206461746160701b6044820152606401610280565b600080600384015460ff1660018111156103ff576103ff610c73565b0361041157506006820154811161041a565b50600682015481105b600783018054821580156101000261ffff19909216919091176001179091556000906105105760028085015461044f91610f37565b6001850154855460405163a9059cbb60e01b81526001600160a01b03918216600482015260248101849052929350169063a9059cbb906044016020604051808303816000875af11580156104a7573d6000803e3d6000fd5b505050506040513d601f19601f820116820180604052508101906104cb9190610f54565b6105105760405162461bcd60e51b815260206004820152601660248201527514185e5bdd5d081d1c985b9cd9995c8819985a5b195960521b6044820152606401610280565b6040805183151581526020810183905286917f5202fa39bccc26f803e2a546ee7bed9a18cb51c61aca95bcbafbea6aeb41285b910160405180910390a25050505050565b6000546001600160a01b0316331461057e5760405162461bcd60e51b815260040161028090610ee0565b6001600160a01b0382166000908152600260209081526040808320805460ff19166001179055600390915290206105b58282610ffe565b505050565b6000546001600160a01b031633146105e45760405162461bcd60e51b815260040161028090610ee0565b6001600160a01b0381166000908152600260209081526040808320805460ff191690556003909152812061061791610c0c565b50565b600080600160009054906101000a90046001600160a01b03166001600160a01b031663feaf968c6040518163ffffffff1660e01b815260040160a060405180830381865afa158015610670573d6000803e3d6000fd5b505050506040513d601f19601f8201168201806040525081019061069491906110d8565b509195945050505050565b6000546001600160a01b031633146106c95760405162461bcd60e51b815260040161028090610ee0565b60005460405163a9059cbb60e01b81526001600160a01b039182166004820152602481018390529083169063a9059cbb906044016020604051808303816000875af115801561071c573d6000803e3d6000fd5b505050506040513d601f19601f820116820180604052508101906107409190610f54565b61078c5760405162461bcd60e51b815260206004820152601960248201527f456d657267656e6379207769746864726177206661696c6564000000000000006044820152606401610280565b5050565b6000546001600160a01b031633146107ba5760405162461bcd60e51b815260040161028090610ee0565b600080546001600160a01b0319166001600160a01b0392909216919091179055565b6001600160a01b03841660009081526002602052604090205460ff1661083a5760405162461bcd60e51b8152602060048201526013602482015272151bdad95b881b9bdd081cdd5c1c1bdc9d1959606a1b6044820152606401610280565b6000831161088a5760405162461bcd60e51b815260206004820152601d60248201527f416d6f756e74206d7573742062652067726561746572207468616e20300000006044820152606401610280565b4281116108d95760405162461bcd60e51b815260206004820152601c60248201527f457870697279206d75737420626520696e2074686520667574757265000000006044820152606401610280565b60006108e361061a565b90506000811361092a5760405162461bcd60e51b8152602060048201526012602482015271496e76616c6964207072696365206461746160701b6044820152606401610280565b6040516323b872dd60e01b8152336004820152306024820152604481018590526001600160a01b038616906323b872dd906064016020604051808303816000875af115801561097d573d6000803e3d6000fd5b505050506040513d601f19601f820116820180604052508101906109a19190610f54565b6109df5760405162461bcd60e51b815260206004820152600f60248201526e151c985b9cd9995c8819985a5b1959608a1b6044820152606401610280565b604051806101200160405280336001600160a01b03168152602001866001600160a01b03168152602001858152602001846001811115610a2157610a21610c73565b8152426020808301919091526040808301869052606080840186905260006080850181905260a090940184905260055484526004835292819020845181546001600160a01b039182166001600160a01b031991821617835593860151600183810180549290931691909516179055908401516002820155918301516003830180549192909160ff1916908381811115610abc57610abc610c73565b02179055506080820151600482015560a082015160058083019190915560c0830151600683015560e0830151600790920180546101009485015161ffff1990911693151561ff0019169390931792151590930291909117909155546040513391907f24197f8107ba8e8957ae8eb824991bc040e93e5a70577d3d1338e3efaab9525c90610b4e90899089908990611128565b60405180910390a360058054906000610b6683611154565b91905055505050505050565b60036020526000908152604090208054610b8b90610f76565b80601f0160208091040260200160405190810160405280929190818152602001828054610bb790610f76565b8015610c045780601f10610bd957610100808354040283529160200191610c04565b820191906000526020600020905b815481529060010190602001808311610be757829003601f168201915b505050505081565b508054610c1890610f76565b6000825580601f10610c28575050565b601f01602090049060005260206000209081019061061791905b80821115610c565760008155600101610c42565b5090565b600060208284031215610c6c57600080fd5b5035919050565b634e487b7160e01b600052602160045260246000fd5b60028110610ca757634e487b7160e01b600052602160045260246000fd5b9052565b6001600160a01b038a8116825289166020820152604081018890526101208101610cd86060830189610c89565b608082019690965260a081019490945260c0840192909252151560e0830152151561010090910152949350505050565b80356001600160a01b0381168114610d1f57600080fd5b919050565b600060208284031215610d3657600080fd5b610d3f82610d08565b9392505050565b634e487b7160e01b600052604160045260246000fd5b60008060408385031215610d6f57600080fd5b610d7883610d08565b9150602083013567ffffffffffffffff80821115610d9557600080fd5b818501915085601f830112610da957600080fd5b813581811115610dbb57610dbb610d46565b604051601f8201601f19908116603f01168101908382118183101715610de357610de3610d46565b81604052828152886020848701011115610dfc57600080fd5b8260208601602083013760006020848301015280955050505050509250929050565b60008060408385031215610e3157600080fd5b610e3a83610d08565b946020939093013593505050565b60008060008060808587031215610e5e57600080fd5b610e6785610d08565b935060208501359250604085013560028110610e8257600080fd5b9396929550929360600135925050565b600060208083528351808285015260005b81811015610ebf57858101830151858201604001528201610ea3565b506000604082860101526040601f19601f8301168501019250505092915050565b60208082526021908201527f4f6e6c792061646d696e2063616e2063616c6c20746869732066756e6374696f6040820152603760f91b606082015260800190565b634e487b7160e01b600052601160045260246000fd5b8082028115828204841417610f4e57610f4e610f21565b92915050565b600060208284031215610f6657600080fd5b81518015158114610d3f57600080fd5b600181811c90821680610f8a57607f821691505b602082108103610faa57634e487b7160e01b600052602260045260246000fd5b50919050565b601f8211156105b557600081815260208120601f850160051c81016020861015610fd75750805b601f850160051c820191505b81811015610ff657828155600101610fe3565b505050505050565b815167ffffffffffffffff81111561101857611018610d46565b61102c816110268454610f76565b84610fb0565b602080601f83116001811461106157600084156110495750858301515b600019600386901b1c1916600185901b178555610ff6565b600085815260208120601f198616915b8281101561109057888601518255948401946001909101908401611071565b50858210156110ae5787850151600019600388901b60f8161c191681555b5050505050600190811b01905550565b805169ffffffffffffffffffff81168114610d1f57600080fd5b600080600080600060a086880312156110f057600080fd5b6110f9866110be565b945060208601519350604086015192506060860151915061111c608087016110be565b90509295509295909350565b6001600160a01b0384168152602081018390526060810161114c6040830184610c89565b949350505050565b60006001820161116657611166610f21565b506001019056fea2646970667358221220b701977574f50f693716134631479ddb5ea569f818d1f6649bec626d9f8b8bd964736f6c63430008130033",
  "linkReferences": {},
  "deployedLinkReferences": {}
}